{
  "_format": "hh-sol-artifact-1",
  "contractName": "PatientDataStorage",
  "sourceName": "contracts/PatientDataStorage.sol",
  "abi": [
    {
      "inputs": [],
      "stateMutability": "nonpayable",
      "type": "constructor"
    },
    {
      "inputs": [],
      "name": "AccessControlBadConfirmation",
      "type": "error"
    },
    {
      "inputs": [
        {
          "internalType": "address",
          "name": "account",
          "type": "address"
        },
        {
          "internalType": "bytes32",
          "name": "neededRole",
          "type": "bytes32"
        }
      ],
      "name": "AccessControlUnauthorizedAccount",
      "type": "error"
    },
    {
      "inputs": [],
      "name": "EnforcedPause",
      "type": "error"
    },
    {
      "inputs": [],
      "name": "ExpectedPause",
      "type": "error"
    },
    {
      "inputs": [],
      "name": "ReentrancyGuardReentrantCall",
      "type": "error"
    },
    {
      "anonymous": false,
      "inputs": [
        {
          "indexed": true,
          "internalType": "string",
          "name": "patientId",
          "type": "string"
        },
        {
          "indexed": true,
          "internalType": "address",
          "name": "accessor",
          "type": "address"
        },
        {
          "indexed": false,
          "internalType": "string",
          "name": "accessType",
          "type": "string"
        }
      ],
      "name": "PatientDataAccessed",
      "type": "event"
    },
    {
      "anonymous": false,
      "inputs": [
        {
          "indexed": true,
          "internalType": "string",
          "name": "patientId",
          "type": "string"
        },
        {
          "indexed": true,
          "internalType": "address",
          "name": "provider",
          "type": "address"
        },
        {
          "indexed": false,
          "internalType": "uint256",
          "name": "timestamp",
          "type": "uint256"
        }
      ],
      "name": "PatientDataStored",
      "type": "event"
    },
    {
      "anonymous": false,
      "inputs": [
        {
          "indexed": true,
          "internalType": "string",
          "name": "patientId",
          "type": "string"
        },
        {
          "indexed": true,
          "internalType": "address",
          "name": "provider",
          "type": "address"
        },
        {
          "indexed": false,
          "internalType": "uint256",
          "name": "timestamp",
          "type": "uint256"
        }
      ],
      "name": "PatientDataUpdated",
      "type": "event"
    },
    {
      "anonymous": false,
      "inputs": [
        {
          "indexed": false,
          "internalType": "address",
          "name": "account",
          "type": "address"
        }
      ],
      "name": "Paused",
      "type": "event"
    },
    {
      "anonymous": false,
      "inputs": [
        {
          "indexed": true,
          "internalType": "address",
          "name": "provider",
          "type": "address"
        },
        {
          "indexed": true,
          "internalType": "address",
          "name": "authorizer",
          "type": "address"
        }
      ],
      "name": "ProviderAuthorized",
      "type": "event"
    },
    {
      "anonymous": false,
      "inputs": [
        {
          "indexed": true,
          "internalType": "address",
          "name": "provider",
          "type": "address"
        },
        {
          "indexed": true,
          "internalType": "address",
          "name": "revoker",
          "type": "address"
        }
      ],
      "name": "ProviderRevoked",
      "type": "event"
    },
    {
      "anonymous": false,
      "inputs": [
        {
          "indexed": true,
          "internalType": "bytes32",
          "name": "role",
          "type": "bytes32"
        },
        {
          "indexed": true,
          "internalType": "bytes32",
          "name": "previousAdminRole",
          "type": "bytes32"
        },
        {
          "indexed": true,
          "internalType": "bytes32",
          "name": "newAdminRole",
          "type": "bytes32"
        }
      ],
      "name": "RoleAdminChanged",
      "type": "event"
    },
    {
      "anonymous": false,
      "inputs": [
        {
          "indexed": true,
          "internalType": "bytes32",
          "name": "role",
          "type": "bytes32"
        },
        {
          "indexed": true,
          "internalType": "address",
          "name": "account",
          "type": "address"
        },
        {
          "indexed": true,
          "internalType": "address",
          "name": "sender",
          "type": "address"
        }
      ],
      "name": "RoleGranted",
      "type": "event"
    },
    {
      "anonymous": false,
      "inputs": [
        {
          "indexed": true,
          "internalType": "bytes32",
          "name": "role",
          "type": "bytes32"
        },
        {
          "indexed": true,
          "internalType": "address",
          "name": "account",
          "type": "address"
        },
        {
          "indexed": true,
          "internalType": "address",
          "name": "sender",
          "type": "address"
        }
      ],
      "name": "RoleRevoked",
      "type": "event"
    },
    {
      "anonymous": false,
      "inputs": [
        {
          "indexed": false,
          "internalType": "address",
          "name": "account",
          "type": "address"
        }
      ],
      "name": "Unpaused",
      "type": "event"
    },
    {
      "inputs": [],
      "name": "DEFAULT_ADMIN_ROLE",
      "outputs": [
        {
          "internalType": "bytes32",
          "name": "",
          "type": "bytes32"
        }
      ],
      "stateMutability": "view",
      "type": "function"
    },
    {
      "inputs": [],
      "name": "HEALTHCARE_PROVIDER_ROLE",
      "outputs": [
        {
          "internalType": "bytes32",
          "name": "",
          "type": "bytes32"
        }
      ],
      "stateMutability": "view",
      "type": "function"
    },
    {
      "inputs": [],
      "name": "PATIENT_ROLE",
      "outputs": [
        {
          "internalType": "bytes32",
          "name": "",
          "type": "bytes32"
        }
      ],
      "stateMutability": "view",
      "type": "function"
    },
    {
      "inputs": [
        {
          "internalType": "address",
          "name": "provider",
          "type": "address"
        }
      ],
      "name": "authorizeProvider",
      "outputs": [],
      "stateMutability": "nonpayable",
      "type": "function"
    },
    {
      "inputs": [
        {
          "internalType": "string",
          "name": "patientId",
          "type": "string"
        },
        {
          "internalType": "uint256",
          "name": "offset",
          "type": "uint256"
        },
        {
          "internalType": "uint256",
          "name": "limit",
          "type": "uint256"
        }
      ],
      "name": "getAccessLogs",
      "outputs": [
        {
          "components": [
            {
              "internalType": "address",
              "name": "accessor",
              "type": "address"
            },
            {
              "internalType": "uint256",
              "name": "timestamp",
              "type": "uint256"
            },
            {
              "internalType": "string",
              "name": "accessType",
              "type": "string"
            },
            {
              "internalType": "bool",
              "name": "authorized",
              "type": "bool"
            }
          ],
          "internalType": "struct PatientDataStorage.AccessLog[]",
          "name": "logs",
          "type": "tuple[]"
        }
      ],
      "stateMutability": "view",
      "type": "function"
    },
    {
      "inputs": [],
      "name": "getAllPatientIds",
      "outputs": [
        {
          "internalType": "string[]",
          "name": "",
          "type": "string[]"
        }
      ],
      "stateMutability": "view",
      "type": "function"
    },
    {
      "inputs": [
        {
          "internalType": "string",
          "name": "patientId",
          "type": "string"
        }
      ],
      "name": "getPatientData",
      "outputs": [
        {
          "internalType": "string",
          "name": "encryptedData",
          "type": "string"
        },
        {
          "internalType": "bytes32",
          "name": "dataHash",
          "type": "bytes32"
        },
        {
          "internalType": "uint256",
          "name": "timestamp",
          "type": "uint256"
        },
        {
          "internalType": "address",
          "name": "updatedBy",
          "type": "address"
        }
      ],
      "stateMutability": "view",
      "type": "function"
    },
    {
      "inputs": [
        {
          "internalType": "bytes32",
          "name": "role",
          "type": "bytes32"
        }
      ],
      "name": "getRoleAdmin",
      "outputs": [
        {
          "internalType": "bytes32",
          "name": "",
          "type": "bytes32"
        }
      ],
      "stateMutability": "view",
      "type": "function"
    },
    {
      "inputs": [],
      "name": "getTotalPatients",
      "outputs": [
        {
          "internalType": "uint256",
          "name": "",
          "type": "uint256"
        }
      ],
      "stateMutability": "view",
      "type": "function"
    },
    {
      "inputs": [
        {
          "internalType": "bytes32",
          "name": "role",
          "type": "bytes32"
        },
        {
          "internalType": "address",
          "name": "account",
          "type": "address"
        }
      ],
      "name": "grantRole",
      "outputs": [],
      "stateMutability": "nonpayable",
      "type": "function"
    },
    {
      "inputs": [
        {
          "internalType": "bytes32",
          "name": "role",
          "type": "bytes32"
        },
        {
          "internalType": "address",
          "name": "account",
          "type": "address"
        }
      ],
      "name": "hasRole",
      "outputs": [
        {
          "internalType": "bool",
          "name": "",
          "type": "bool"
        }
      ],
      "stateMutability": "view",
      "type": "function"
    },
    {
      "inputs": [
        {
          "internalType": "address",
          "name": "provider",
          "type": "address"
        }
      ],
      "name": "isAuthorizedProvider",
      "outputs": [
        {
          "internalType": "bool",
          "name": "",
          "type": "bool"
        }
      ],
      "stateMutability": "view",
      "type": "function"
    },
    {
      "inputs": [],
      "name": "pause",
      "outputs": [],
      "stateMutability": "nonpayable",
      "type": "function"
    },
    {
      "inputs": [],
      "name": "paused",
      "outputs": [
        {
          "internalType": "bool",
          "name": "",
          "type": "bool"
        }
      ],
      "stateMutability": "view",
      "type": "function"
    },
    {
      "inputs": [
        {
          "internalType": "bytes32",
          "name": "role",
          "type": "bytes32"
        },
        {
          "internalType": "address",
          "name": "callerConfirmation",
          "type": "address"
        }
      ],
      "name": "renounceRole",
      "outputs": [],
      "stateMutability": "nonpayable",
      "type": "function"
    },
    {
      "inputs": [
        {
          "internalType": "address",
          "name": "provider",
          "type": "address"
        }
      ],
      "name": "revokeProvider",
      "outputs": [],
      "stateMutability": "nonpayable",
      "type": "function"
    },
    {
      "inputs": [
        {
          "internalType": "bytes32",
          "name": "role",
          "type": "bytes32"
        },
        {
          "internalType": "address",
          "name": "account",
          "type": "address"
        }
      ],
      "name": "revokeRole",
      "outputs": [],
      "stateMutability": "nonpayable",
      "type": "function"
    },
    {
      "inputs": [
        {
          "internalType": "string",
          "name": "patientId",
          "type": "string"
        },
        {
          "internalType": "string",
          "name": "encryptedData",
          "type": "string"
        },
        {
          "internalType": "bytes32",
          "name": "dataHash",
          "type": "bytes32"
        }
      ],
      "name": "storePatientData",
      "outputs": [],
      "stateMutability": "nonpayable",
      "type": "function"
    },
    {
      "inputs": [
        {
          "internalType": "bytes4",
          "name": "interfaceId",
          "type": "bytes4"
        }
      ],
      "name": "supportsInterface",
      "outputs": [
        {
          "internalType": "bool",
          "name": "",
          "type": "bool"
        }
      ],
      "stateMutability": "view",
      "type": "function"
    },
    {
      "inputs": [],
      "name": "totalAccessLogs",
      "outputs": [
        {
          "internalType": "uint256",
          "name": "",
          "type": "uint256"
        }
      ],
      "stateMutability": "view",
      "type": "function"
    },
    {
      "inputs": [],
      "name": "totalPatients",
      "outputs": [
        {
          "internalType": "uint256",
          "name": "",
          "type": "uint256"
        }
      ],
      "stateMutability": "view",
      "type": "function"
    },
    {
      "inputs": [],
      "name": "unpause",
      "outputs": [],
      "stateMutability": "nonpayable",
      "type": "function"
    },
    {
      "inputs": [
        {
          "internalType": "string",
          "name": "patientId",
          "type": "string"
        },
        {
          "internalType": "bytes32",
          "name": "originalHash",
          "type": "bytes32"
        }
      ],
      "name": "verifyDataIntegrity",
      "outputs": [
        {
          "internalType": "bool",
          "name": "",
          "type": "bool"
        }
      ],
      "stateMutability": "view",
      "type": "function"
    }
  ],
  "bytecode": "0x60806040523480156200001157600080fd5b50600180556200002360003362000071565b50620000507f8825c62207077c41710fe5144a6467477a643e911c9ab3785826111f7c94ed8b3362000071565b50336000908152600560205260409020805460ff1916600117905562000120565b6000828152602081815260408083206001600160a01b038516845290915281205460ff1662000116576000838152602081815260408083206001600160a01b03861684529091529020805460ff19166001179055620000cd3390565b6001600160a01b0316826001600160a01b0316847f2f8788117e7eff1d82e926ec794901d17c78024a50270940304540a733656f0d60405160405180910390a45060016200011a565b5060005b92915050565b611b1980620001306000396000f3fe608060405234801561001057600080fd5b506004361061014d5760003560e01c80638d7d410b116100c3578063cff0572d1161007c578063cff0572d146102ba578063d547741f146102cf578063deb5ef09146102e2578063dfbb8fda146102eb578063f497e1891461030e578063fff939681461031657600080fd5b80638d7d410b1461023257806391d1485414610245578063a217fddf14610258578063ac1e8b8e14610260578063ac5cb97d14610273578063cafa028a1461029a57600080fd5b80632f2ff15d116101155780632f2ff15d146101e857806336568abe146101fb5780633f4ba83a1461020e57806347dc6587146102165780635c975abb1461021f5780638456cb591461022a57600080fd5b806301ffc9a7146101525780630402e7351461017a578063112ea2621461019d57806322770d8e146101b2578063248a9ca3146101c5575b600080fd5b610165610160366004611414565b610329565b60405190151581526020015b60405180910390f35b61018f600080516020611ac483398151915281565b604051908152602001610171565b6101b06101ab366004611461565b610360565b005b6101656101c0366004611461565b610437565b61018f6101d336600461147c565b60009081526020819052604090206001015490565b6101b06101f6366004611495565b610471565b6101b0610209366004611495565b61049c565b6101b06104d4565b61018f60085481565b60025460ff16610165565b6101b06104ea565b610165610240366004611564565b6104fd565b610165610253366004611495565b610696565b61018f600081565b6101b061026e366004611461565b6106bf565b61018f7f72606200fac42b7dc86b75901d61ecfab2a4a1a6eded478b97a428094891abed81565b6102ad6102a83660046115a9565b6107db565b6040516101719190611647565b6102c2610ae1565b60405161017191906116e0565b6101b06102dd366004611495565b610bc6565b61018f60075481565b6102fe6102f9366004611742565b610beb565b604051610171949392919061177f565b60075461018f565b6101b06103243660046117b7565b610d9f565b60006001600160e01b03198216637965db0b60e01b148061035a57506301ffc9a760e01b6001600160e01b03198316145b92915050565b600061036b816110b6565b6001600160a01b0382166103c15760405162461bcd60e51b8152602060048201526018602482015277496e76616c69642070726f7669646572206164647265737360401b60448201526064015b60405180910390fd5b6001600160a01b0382166000908152600560205260409020805460ff191660011790556103fc600080516020611ac4833981519152836110c0565b5060405133906001600160a01b038416907fb3b6f6e18201133d5cef4ede0fc1c39f6d0cce4b39c7ce61e3497d3ba03bceed90600090a35050565b6001600160a01b03811660009081526005602052604081205460ff168061035a575061035a600080516020611ac483398151915283610696565b60008281526020819052604090206001015461048c816110b6565b61049683836110c0565b50505050565b6001600160a01b03811633146104c55760405163334bd91960e11b815260040160405180910390fd5b6104cf8282611152565b505050565b60006104df816110b6565b6104e76111bd565b50565b60006104f5816110b6565b6104e761120f565b6000610517600080516020611ac483398151915233610696565b8061053157503360009081526005602052604090205460ff165b61054d5760405162461bcd60e51b81526004016103b890611824565b82600081511161056f5760405162461bcd60e51b81526004016103b890611866565b6000600385604051610581919061189d565b90815260200160405180910390206040518060a0016040529081600082015481526020016001820180546105b4906118b9565b80601f01602080910402602001604051908101604052809291908181526020018280546105e0906118b9565b801561062d5780601f106106025761010080835404028352916020019161062d565b820191906000526020600020905b81548152906001019060200180831161061057829003601f168201915b5050509183525050600282015460208201526003909101546001600160a01b0381166040830152600160a01b900460ff161515606090910152608081015190915061068a5760405162461bcd60e51b81526004016103b8906118f3565b51831491505092915050565b6000918252602082815260408084206001600160a01b0393909316845291905290205460ff1690565b60006106ca816110b6565b6001600160a01b03821661071b5760405162461bcd60e51b8152602060048201526018602482015277496e76616c69642070726f7669646572206164647265737360401b60448201526064016103b8565b336001600160a01b038316036107685760405162461bcd60e51b815260206004820152601260248201527121b0b73737ba103932bb37b5b29039b2b63360711b60448201526064016103b8565b6001600160a01b0382166000908152600560205260409020805460ff191690556107a0600080516020611ac483398151915283611152565b5060405133906001600160a01b038416907f61aae47e457f6b5f1441fd5a834972d523822d0185b0272360985b51d3d9c2f090600090a35050565b60606107f5600080516020611ac483398151915233610696565b8061080f57503360009081526005602052604090205460ff165b61082b5760405162461bcd60e51b81526004016103b890611824565b83600081511161084d5760405162461bcd60e51b81526004016103b890611866565b600060048660405161085f919061189d565b9081526020016040518091039020805480602002602001604051908101604052809291908181526020016000905b82821015610983576000848152602090819020604080516080810182526004860290920180546001600160a01b03168352600181015493830193909352600283018054929392918401916108e0906118b9565b80601f016020809104026020016040519081016040528092919081815260200182805461090c906118b9565b80156109595780601f1061092e57610100808354040283529160200191610959565b820191906000526020600020905b81548152906001019060200180831161093c57829003601f168201915b50505091835250506003919091015460ff161515602091820152908252600192909201910161088d565b505050509050805185106109d05760405162461bcd60e51b81526020600482015260146024820152734f6666736574206f7574206f6620626f756e647360601b60448201526064016103b8565b60006109dc858761194d565b905081518111156109eb575080515b6109f58682611960565b67ffffffffffffffff811115610a0d57610a0d6114c1565b604051908082528060200260200182016040528015610a7457816020015b610a61604051806080016040528060006001600160a01b0316815260200160008152602001606081526020016000151581525090565b815260200190600190039081610a2b5790505b509350855b81811015610ad657828181518110610a9357610a93611973565b6020026020010151858883610aa89190611960565b81518110610ab857610ab8611973565b60200260200101819052508080610ace90611989565b915050610a79565b505050509392505050565b60606000610aee816110b6565b6006805480602002602001604051908101604052809291908181526020016000905b82821015610bbc578382906000526020600020018054610b2f906118b9565b80601f0160208091040260200160405190810160405280929190818152602001828054610b5b906118b9565b8015610ba85780601f10610b7d57610100808354040283529160200191610ba8565b820191906000526020600020905b815481529060010190602001808311610b8b57829003601f168201915b505050505081526020019060010190610b10565b5050505091505090565b600082815260208190526040902060010154610be1816110b6565b6104968383611152565b60606000806000610c0a600080516020611ac483398151915233610696565b80610c2457503360009081526005602052604090205460ff165b610c405760405162461bcd60e51b81526004016103b890611824565b846000815111610c625760405162461bcd60e51b81526004016103b890611866565b6000600387604051610c74919061189d565b90815260200160405180910390206040518060a001604052908160008201548152602001600182018054610ca7906118b9565b80601f0160208091040260200160405190810160405280929190818152602001828054610cd3906118b9565b8015610d205780601f10610cf557610100808354040283529160200191610d20565b820191906000526020600020905b815481529060010190602001808311610d0357829003601f168201915b5050509183525050600282015460208201526003909101546001600160a01b0381166040830152600160a01b900460ff1615156060909101526080810151909150610d7d5760405162461bcd60e51b81526004016103b8906118f3565b6020810151815160408301516060909301519199909850919650945092505050565b610db7600080516020611ac483398151915233610696565b80610dd157503360009081526005602052604090205460ff165b610ded5760405162461bcd60e51b81526004016103b890611824565b610df561124c565b610dfd611276565b826000815111610e1f5760405162461bcd60e51b81526004016103b890611866565b6000835111610e705760405162461bcd60e51b815260206004820152601e60248201527f456e6372797074656420646174612063616e6e6f7420626520656d707479000060448201526064016103b8565b81610ebd5760405162461bcd60e51b815260206004820152601960248201527f4461746120686173682063616e6e6f7420626520656d7074790000000000000060448201526064016103b8565b6000600385604051610ecf919061189d565b908152604080516020928190038301812060039081015460a0830184528783529382018890524282840152336060830152600160808301529151600160a01b90930460ff1615935091610f2390889061189d565b9081526040516020918190038201902082518155908201516001820190610f4a90826119f0565b50604082015160028201556060820151600390910180546080909301511515600160a01b026001600160a81b03199093166001600160a01b0390921691909117919091179055801561103757600680546001810182556000919091527ff652222313e28459528d920b65115c16c04f3efc82aaedc97be59f3f377c0d3f01610fd286826119f0565b5060078054906000610fe383611989565b90915550506040513390610ff890879061189d565b604051908190038120428252907fdd9497c93744b7b6c77d4521c023758c42e516caa18b63c02cbc96695eb88f6c9060200160405180910390a3611082565b604051339061104790879061189d565b604051908190038120428252907f867e5c97d1c1c6193d5b96148928fa45ccaaf4c6d33b5791d3b953109b4f16f19060200160405180910390a35b6110ab8560405180604001604052806005815260200164575249544560d81b815250600161129c565b50506104cf60018055565b6104e781336113b4565b60006110cc8383610696565b61114a576000838152602081815260408083206001600160a01b03861684529091529020805460ff191660011790556111023390565b6001600160a01b0316826001600160a01b0316847f2f8788117e7eff1d82e926ec794901d17c78024a50270940304540a733656f0d60405160405180910390a450600161035a565b50600061035a565b600061115e8383610696565b1561114a576000838152602081815260408083206001600160a01b0386168085529252808320805460ff1916905551339286917ff6391f5c32d9c69d2a47ea670b442974b53935d1edc7fd64eb21e047a839171b9190a450600161035a565b6111c56113f1565b6002805460ff191690557f5db9ee0a495bf2e6ff9c91a7834c1ba4fdd244a5e8aa4e537bd38aeae4b073aa335b6040516001600160a01b03909116815260200160405180910390a1565b611217611276565b6002805460ff191660011790557f62e78cea01bee320cd4e420270b5ea74000d11b0c9f74754ebdbfc544b05a2586111f23390565b60026001540361126f57604051633ee5aeb560e01b815260040160405180910390fd5b6002600155565b60025460ff161561129a5760405163d93c066560e01b815260040160405180910390fd5b565b6004836040516112ac919061189d565b9081526040805160209281900383018120608082018352338252428483019081529282018681528515156060840152815460018082018455600093845295909220835160049093020180546001600160a01b0319166001600160a01b039093169290921782559251938101939093559051909190600282019061132f90826119f0565b50606091909101516003909101805460ff19169115159190911790556008805490600061135b83611989565b9091555050604051339061137090859061189d565b60405180910390207f7603dadf9f472199b40f0895651d947630138a5baad0c82a51021be059c1ab06846040516113a79190611ab0565b60405180910390a3505050565b6113be8282610696565b6113ed5760405163e2517d3f60e01b81526001600160a01b0382166004820152602481018390526044016103b8565b5050565b60025460ff1661129a57604051638dfc202b60e01b815260040160405180910390fd5b60006020828403121561142657600080fd5b81356001600160e01b03198116811461143e57600080fd5b9392505050565b80356001600160a01b038116811461145c57600080fd5b919050565b60006020828403121561147357600080fd5b61143e82611445565b60006020828403121561148e57600080fd5b5035919050565b600080604083850312156114a857600080fd5b823591506114b860208401611445565b90509250929050565b634e487b7160e01b600052604160045260246000fd5b600082601f8301126114e857600080fd5b813567ffffffffffffffff80821115611503576115036114c1565b604051601f8301601f19908116603f0116810190828211818310171561152b5761152b6114c1565b8160405283815286602085880101111561154457600080fd5b836020870160208301376000602085830101528094505050505092915050565b6000806040838503121561157757600080fd5b823567ffffffffffffffff81111561158e57600080fd5b61159a858286016114d7565b95602094909401359450505050565b6000806000606084860312156115be57600080fd5b833567ffffffffffffffff8111156115d557600080fd5b6115e1868287016114d7565b9660208601359650604090950135949350505050565b60005b838110156116125781810151838201526020016115fa565b50506000910152565b600081518084526116338160208601602086016115f7565b601f01601f19169290920160200192915050565b60006020808301818452808551808352604092508286019150828160051b87010184880160005b838110156116d257888303603f19018552815180516001600160a01b031684528781015188850152868101516080888601819052906116af8287018261161b565b60609384015115159690930195909552509487019492509086019060010161166e565b509098975050505050505050565b6000602080830181845280855180835260408601915060408160051b870101925083870160005b8281101561173557603f1988860301845261172385835161161b565b94509285019290850190600101611707565b5092979650505050505050565b60006020828403121561175457600080fd5b813567ffffffffffffffff81111561176b57600080fd5b611777848285016114d7565b949350505050565b608081526000611792608083018761161b565b60208301959095525060408101929092526001600160a01b0316606090910152919050565b6000806000606084860312156117cc57600080fd5b833567ffffffffffffffff808211156117e457600080fd5b6117f0878388016114d7565b9450602086013591508082111561180657600080fd5b50611813868287016114d7565b925050604084013590509250925092565b60208082526022908201527f4e6f7420617574686f72697a6564206865616c7468636172652070726f76696460408201526132b960f11b606082015260800190565b6020808252601a908201527f50617469656e742049442063616e6e6f7420626520656d707479000000000000604082015260600190565b600082516118af8184602087016115f7565b9190910192915050565b600181811c908216806118cd57607f821691505b6020821081036118ed57634e487b7160e01b600052602260045260246000fd5b50919050565b60208082526024908201527f50617469656e74207265636f7264206e6f7420666f756e64206f7220696e61636040820152637469766560e01b606082015260800190565b634e487b7160e01b600052601160045260246000fd5b8082018082111561035a5761035a611937565b8181038181111561035a5761035a611937565b634e487b7160e01b600052603260045260246000fd5b60006001820161199b5761199b611937565b5060010190565b601f8211156104cf57600081815260208120601f850160051c810160208610156119c95750805b601f850160051c820191505b818110156119e8578281556001016119d5565b505050505050565b815167ffffffffffffffff811115611a0a57611a0a6114c1565b611a1e81611a1884546118b9565b846119a2565b602080601f831160018114611a535760008415611a3b5750858301515b600019600386901b1c1916600185901b1785556119e8565b600085815260208120601f198616915b82811015611a8257888601518255948401946001909101908401611a63565b5085821015611aa05787850151600019600388901b60f8161c191681555b5050505050600190811b01905550565b60208152600061143e602083018461161b56fe8825c62207077c41710fe5144a6467477a643e911c9ab3785826111f7c94ed8ba26469706673582212209cbbe4b8951241b4c4ac4bb7e619d6ae896e060066345bb803f2c688c02022f164736f6c63430008140033",
  "linkReferences": {},
  "deployedLinkReferences": {}
}